{
    "contractName": "ERC20Token",
    "abi": [
        {
            "inputs": [],
            "stateMutability": "nonpayable",
            "type": "constructor"
        },
        {
            "anonymous": false,
            "inputs": [
                {
                    "indexed": true,
                    "internalType": "address",
                    "name": "owner",
                    "type": "address"
                },
                {
                    "indexed": true,
                    "internalType": "address",
                    "name": "spender",
                    "type": "address"
                },
                {
                    "indexed": false,
                    "internalType": "uint256",
                    "name": "value",
                    "type": "uint256"
                }
            ],
            "name": "Approval",
            "type": "event"
        },
        {
            "anonymous": false,
            "inputs": [
                {
                    "indexed": false,
                    "internalType": "address",
                    "name": "account",
                    "type": "address"
                }
            ],
            "name": "Paused",
            "type": "event"
        },
        {
            "anonymous": false,
            "inputs": [
                {
                    "indexed": true,
                    "internalType": "bytes32",
                    "name": "role",
                    "type": "bytes32"
                },
                {
                    "indexed": true,
                    "internalType": "bytes32",
                    "name": "previousAdminRole",
                    "type": "bytes32"
                },
                {
                    "indexed": true,
                    "internalType": "bytes32",
                    "name": "newAdminRole",
                    "type": "bytes32"
                }
            ],
            "name": "RoleAdminChanged",
            "type": "event"
        },
        {
            "anonymous": false,
            "inputs": [
                {
                    "indexed": true,
                    "internalType": "bytes32",
                    "name": "role",
                    "type": "bytes32"
                },
                {
                    "indexed": true,
                    "internalType": "address",
                    "name": "account",
                    "type": "address"
                },
                {
                    "indexed": true,
                    "internalType": "address",
                    "name": "sender",
                    "type": "address"
                }
            ],
            "name": "RoleGranted",
            "type": "event"
        },
        {
            "anonymous": false,
            "inputs": [
                {
                    "indexed": true,
                    "internalType": "bytes32",
                    "name": "role",
                    "type": "bytes32"
                },
                {
                    "indexed": true,
                    "internalType": "address",
                    "name": "account",
                    "type": "address"
                },
                {
                    "indexed": true,
                    "internalType": "address",
                    "name": "sender",
                    "type": "address"
                }
            ],
            "name": "RoleRevoked",
            "type": "event"
        },
        {
            "anonymous": false,
            "inputs": [
                {
                    "indexed": true,
                    "internalType": "address",
                    "name": "from",
                    "type": "address"
                },
                {
                    "indexed": true,
                    "internalType": "address",
                    "name": "to",
                    "type": "address"
                },
                {
                    "indexed": false,
                    "internalType": "uint256",
                    "name": "value",
                    "type": "uint256"
                }
            ],
            "name": "Transfer",
            "type": "event"
        },
        {
            "anonymous": false,
            "inputs": [
                {
                    "indexed": false,
                    "internalType": "address",
                    "name": "account",
                    "type": "address"
                }
            ],
            "name": "Unpaused",
            "type": "event"
        },
        {
            "inputs": [],
            "name": "DEFAULT_ADMIN_ROLE",
            "outputs": [
                {
                    "internalType": "bytes32",
                    "name": "",
                    "type": "bytes32"
                }
            ],
            "stateMutability": "view",
            "type": "function"
        },
        {
            "inputs": [],
            "name": "DOMAIN_SEPARATOR",
            "outputs": [
                {
                    "internalType": "bytes32",
                    "name": "",
                    "type": "bytes32"
                }
            ],
            "stateMutability": "view",
            "type": "function"
        },
        {
            "inputs": [],
            "name": "MINTER_ROLE",
            "outputs": [
                {
                    "internalType": "bytes32",
                    "name": "",
                    "type": "bytes32"
                }
            ],
            "stateMutability": "view",
            "type": "function"
        },
        {
            "inputs": [],
            "name": "PAUSER_ROLE",
            "outputs": [
                {
                    "internalType": "bytes32",
                    "name": "",
                    "type": "bytes32"
                }
            ],
            "stateMutability": "view",
            "type": "function"
        },
        {
            "inputs": [
                {
                    "internalType": "address",
                    "name": "owner",
                    "type": "address"
                },
                {
                    "internalType": "address",
                    "name": "spender",
                    "type": "address"
                }
            ],
            "name": "allowance",
            "outputs": [
                {
                    "internalType": "uint256",
                    "name": "",
                    "type": "uint256"
                }
            ],
            "stateMutability": "view",
            "type": "function"
        },
        {
            "inputs": [
                {
                    "internalType": "address",
                    "name": "spender",
                    "type": "address"
                },
                {
                    "internalType": "uint256",
                    "name": "amount",
                    "type": "uint256"
                }
            ],
            "name": "approve",
            "outputs": [
                {
                    "internalType": "bool",
                    "name": "",
                    "type": "bool"
                }
            ],
            "stateMutability": "nonpayable",
            "type": "function"
        },
        {
            "inputs": [
                {
                    "internalType": "address",
                    "name": "account",
                    "type": "address"
                }
            ],
            "name": "balanceOf",
            "outputs": [
                {
                    "internalType": "uint256",
                    "name": "",
                    "type": "uint256"
                }
            ],
            "stateMutability": "view",
            "type": "function"
        },
        {
            "inputs": [
                {
                    "internalType": "uint256",
                    "name": "amount",
                    "type": "uint256"
                }
            ],
            "name": "burn",
            "outputs": [],
            "stateMutability": "nonpayable",
            "type": "function"
        },
        {
            "inputs": [
                {
                    "internalType": "address",
                    "name": "account",
                    "type": "address"
                },
                {
                    "internalType": "uint256",
                    "name": "amount",
                    "type": "uint256"
                }
            ],
            "name": "burnFrom",
            "outputs": [],
            "stateMutability": "nonpayable",
            "type": "function"
        },
        {
            "inputs": [],
            "name": "decimals",
            "outputs": [
                {
                    "internalType": "uint8",
                    "name": "",
                    "type": "uint8"
                }
            ],
            "stateMutability": "view",
            "type": "function"
        },
        {
            "inputs": [
                {
                    "internalType": "address",
                    "name": "spender",
                    "type": "address"
                },
                {
                    "internalType": "uint256",
                    "name": "subtractedValue",
                    "type": "uint256"
                }
            ],
            "name": "decreaseAllowance",
            "outputs": [
                {
                    "internalType": "bool",
                    "name": "",
                    "type": "bool"
                }
            ],
            "stateMutability": "nonpayable",
            "type": "function"
        },
        {
            "inputs": [
                {
                    "internalType": "bytes32",
                    "name": "role",
                    "type": "bytes32"
                }
            ],
            "name": "getRoleAdmin",
            "outputs": [
                {
                    "internalType": "bytes32",
                    "name": "",
                    "type": "bytes32"
                }
            ],
            "stateMutability": "view",
            "type": "function"
        },
        {
            "inputs": [
                {
                    "internalType": "bytes32",
                    "name": "role",
                    "type": "bytes32"
                },
                {
                    "internalType": "address",
                    "name": "account",
                    "type": "address"
                }
            ],
            "name": "grantRole",
            "outputs": [],
            "stateMutability": "nonpayable",
            "type": "function"
        },
        {
            "inputs": [
                {
                    "internalType": "bytes32",
                    "name": "role",
                    "type": "bytes32"
                },
                {
                    "internalType": "address",
                    "name": "account",
                    "type": "address"
                }
            ],
            "name": "hasRole",
            "outputs": [
                {
                    "internalType": "bool",
                    "name": "",
                    "type": "bool"
                }
            ],
            "stateMutability": "view",
            "type": "function"
        },
        {
            "inputs": [
                {
                    "internalType": "address",
                    "name": "spender",
                    "type": "address"
                },
                {
                    "internalType": "uint256",
                    "name": "addedValue",
                    "type": "uint256"
                }
            ],
            "name": "increaseAllowance",
            "outputs": [
                {
                    "internalType": "bool",
                    "name": "",
                    "type": "bool"
                }
            ],
            "stateMutability": "nonpayable",
            "type": "function"
        },
        {
            "inputs": [
                {
                    "internalType": "address",
                    "name": "to",
                    "type": "address"
                },
                {
                    "internalType": "uint256",
                    "name": "amount",
                    "type": "uint256"
                }
            ],
            "name": "mint",
            "outputs": [],
            "stateMutability": "nonpayable",
            "type": "function"
        },
        {
            "inputs": [],
            "name": "name",
            "outputs": [
                {
                    "internalType": "string",
                    "name": "",
                    "type": "string"
                }
            ],
            "stateMutability": "view",
            "type": "function"
        },
        {
            "inputs": [
                {
                    "internalType": "address",
                    "name": "owner",
                    "type": "address"
                }
            ],
            "name": "nonces",
            "outputs": [
                {
                    "internalType": "uint256",
                    "name": "",
                    "type": "uint256"
                }
            ],
            "stateMutability": "view",
            "type": "function"
        },
        {
            "inputs": [],
            "name": "pause",
            "outputs": [],
            "stateMutability": "nonpayable",
            "type": "function"
        },
        {
            "inputs": [],
            "name": "paused",
            "outputs": [
                {
                    "internalType": "bool",
                    "name": "",
                    "type": "bool"
                }
            ],
            "stateMutability": "view",
            "type": "function"
        },
        {
            "inputs": [
                {
                    "internalType": "address",
                    "name": "owner",
                    "type": "address"
                },
                {
                    "internalType": "address",
                    "name": "spender",
                    "type": "address"
                },
                {
                    "internalType": "uint256",
                    "name": "value",
                    "type": "uint256"
                },
                {
                    "internalType": "uint256",
                    "name": "deadline",
                    "type": "uint256"
                },
                {
                    "internalType": "uint8",
                    "name": "v",
                    "type": "uint8"
                },
                {
                    "internalType": "bytes32",
                    "name": "r",
                    "type": "bytes32"
                },
                {
                    "internalType": "bytes32",
                    "name": "s",
                    "type": "bytes32"
                }
            ],
            "name": "permit",
            "outputs": [],
            "stateMutability": "nonpayable",
            "type": "function"
        },
        {
            "inputs": [
                {
                    "internalType": "bytes32",
                    "name": "role",
                    "type": "bytes32"
                },
                {
                    "internalType": "address",
                    "name": "account",
                    "type": "address"
                }
            ],
            "name": "renounceRole",
            "outputs": [],
            "stateMutability": "nonpayable",
            "type": "function"
        },
        {
            "inputs": [
                {
                    "internalType": "bytes32",
                    "name": "role",
                    "type": "bytes32"
                },
                {
                    "internalType": "address",
                    "name": "account",
                    "type": "address"
                }
            ],
            "name": "revokeRole",
            "outputs": [],
            "stateMutability": "nonpayable",
            "type": "function"
        },
        {
            "inputs": [
                {
                    "internalType": "bytes4",
                    "name": "interfaceId",
                    "type": "bytes4"
                }
            ],
            "name": "supportsInterface",
            "outputs": [
                {
                    "internalType": "bool",
                    "name": "",
                    "type": "bool"
                }
            ],
            "stateMutability": "view",
            "type": "function"
        },
        {
            "inputs": [],
            "name": "symbol",
            "outputs": [
                {
                    "internalType": "string",
                    "name": "",
                    "type": "string"
                }
            ],
            "stateMutability": "view",
            "type": "function"
        },
        {
            "inputs": [],
            "name": "totalSupply",
            "outputs": [
                {
                    "internalType": "uint256",
                    "name": "",
                    "type": "uint256"
                }
            ],
            "stateMutability": "view",
            "type": "function"
        },
        {
            "inputs": [
                {
                    "internalType": "address",
                    "name": "to",
                    "type": "address"
                },
                {
                    "internalType": "uint256",
                    "name": "amount",
                    "type": "uint256"
                }
            ],
            "name": "transfer",
            "outputs": [
                {
                    "internalType": "bool",
                    "name": "",
                    "type": "bool"
                }
            ],
            "stateMutability": "nonpayable",
            "type": "function"
        },
        {
            "inputs": [
                {
                    "internalType": "address",
                    "name": "from",
                    "type": "address"
                },
                {
                    "internalType": "address",
                    "name": "to",
                    "type": "address"
                },
                {
                    "internalType": "uint256",
                    "name": "amount",
                    "type": "uint256"
                }
            ],
            "name": "transferFrom",
            "outputs": [
                {
                    "internalType": "bool",
                    "name": "",
                    "type": "bool"
                }
            ],
            "stateMutability": "nonpayable",
            "type": "function"
        },
        {
            "inputs": [],
            "name": "unpause",
            "outputs": [],
            "stateMutability": "nonpayable",
            "type": "function"
        }
    ],
    "bytecode": "6101406040523480156200001257600080fd5b506040518060400160405280600a81526020016922a92199182a37b5b2b760b11b81525080604051806040016040528060018152602001603160f81b8152506040518060400160405280600a81526020016922a92199182a37b5b2b760b11b81525060405180604001604052806004815260200163115490d560e21b8152508160039080519060200190620000a992919062000404565b508051620000bf90600490602084019062000404565b50506005805460ff1916905550815160209283012081519183019190912060e08290526101008190524660a0818152604080517f8b73c3c69bb8fe3d512ecc4cf759cc79239f7b179b0ffacaa9a75d522b39400f818801819052818301969096526060810194909452608080850193909352308483018190528151808603909301835260c094850190915281519190950120905291909152610120525062000169600033620001f0565b620001957f65d7a28e3265b37a6474929f336521b332c1681b933f6cb9f3376673440d862a33620001f0565b620001be33620001a86012600a620005bd565b620001b8906377359400620005d5565b6200027b565b620001ea7f9f2df0fed2c77648de5860a4cc508cd0818c85b8b8a1ab4ceeef8d981c8956a633620001f0565b6200064f565b620001fc828262000372565b620002775760008281526006602090815260408083206001600160a01b03851684529091529020805460ff19166001179055620002363390565b6001600160a01b0316816001600160a01b0316837f2f8788117e7eff1d82e926ec794901d17c78024a50270940304540a733656f0d60405160405180910390a45b5050565b6001600160a01b038216620002d75760405162461bcd60e51b815260206004820152601f60248201527f45524332303a206d696e7420746f20746865207a65726f20616464726573730060448201526064015b60405180910390fd5b620002e5600083836200039f565b8060026000828254620002f99190620005f7565b90915550506001600160a01b0382166000908152602081905260408120805483929062000328908490620005f7565b90915550506040518181526001600160a01b038316906000907fddf252ad1be2c89b69c2b068fc378daa952ba7f163c4a11628f55a4df523b3ef9060200160405180910390a35050565b60008281526006602090815260408083206001600160a01b038516845290915290205460ff165b92915050565b60055460ff1615620003e75760405162461bcd60e51b815260206004820152601060248201526f14185d5cd8589b194e881c185d5cd95960821b6044820152606401620002ce565b620003ff838383620003ff60201b620005481760201c565b505050565b828054620004129062000612565b90600052602060002090601f01602090048101928262000436576000855562000481565b82601f106200045157805160ff191683800117855562000481565b8280016001018555821562000481579182015b828111156200048157825182559160200191906001019062000464565b506200048f92915062000493565b5090565b5b808211156200048f576000815560010162000494565b634e487b7160e01b600052601160045260246000fd5b600181815b8085111562000501578160001904821115620004e557620004e5620004aa565b80851615620004f357918102915b93841c9390800290620004c5565b509250929050565b6000826200051a5750600162000399565b81620005295750600062000399565b81600181146200054257600281146200054d576200056d565b600191505062000399565b60ff841115620005615762000561620004aa565b50506001821b62000399565b5060208310610133831016604e8410600b841016171562000592575081810a62000399565b6200059e8383620004c0565b8060001904821115620005b557620005b5620004aa565b029392505050565b6000620005ce60ff84168362000509565b9392505050565b6000816000190483118215151615620005f257620005f2620004aa565b500290565b600082198211156200060d576200060d620004aa565b500190565b600181811c908216806200062757607f821691505b602082108114156200064957634e487b7160e01b600052602260045260246000fd5b50919050565b60805160a05160c05160e0516101005161012051611b706200069f6000396000610de101526000610e3001526000610e0b01526000610d6401526000610d8e01526000610db80152611b706000f3fe608060405234801561001057600080fd5b50600436106101cf5760003560e01c80635c975abb11610104578063a217fddf116100a2578063d539139311610071578063d5391393146103aa578063d547741f146103d1578063dd62ed3e146103e4578063e63ab1e9146103f757600080fd5b8063a217fddf14610369578063a457c2d714610371578063a9059cbb14610384578063d505accf1461039757600080fd5b80637ecebe00116100de5780637ecebe00146103335780638456cb591461034657806391d148541461034e57806395d89b411461036157600080fd5b80635c975abb146102ec57806370a08231146102f757806379cc67901461032057600080fd5b8063313ce56711610171578063395093511161014b57806339509351146102ab5780633f4ba83a146102be57806340c10f19146102c657806342966c68146102d957600080fd5b8063313ce567146102815780633644e5151461029057806336568abe1461029857600080fd5b806318160ddd116101ad57806318160ddd1461022457806323b872dd14610236578063248a9ca3146102495780632f2ff15d1461026c57600080fd5b806301ffc9a7146101d457806306fdde03146101fc578063095ea7b314610211575b600080fd5b6101e76101e23660046117cb565b61041e565b60405190151581526020015b60405180910390f35b610204610455565b6040516101f39190611821565b6101e761021f366004611870565b6104e7565b6002545b6040519081526020016101f3565b6101e761024436600461189a565b6104ff565b6102286102573660046118d6565b60009081526006602052604090206001015490565b61027f61027a3660046118ef565b610523565b005b604051601281526020016101f3565b61022861054d565b61027f6102a63660046118ef565b61055c565b6101e76102b9366004611870565b6105df565b61027f610601565b61027f6102d4366004611870565b610636565b61027f6102e73660046118d6565b61066a565b60055460ff166101e7565b61022861030536600461191b565b6001600160a01b031660009081526020819052604090205490565b61027f61032e366004611870565b610674565b61022861034136600461191b565b610689565b61027f6106a7565b6101e761035c3660046118ef565b6106d9565b610204610704565b610228600081565b6101e761037f366004611870565b610713565b6101e7610392366004611870565b61078e565b61027f6103a5366004611936565b61079c565b6102287f9f2df0fed2c77648de5860a4cc508cd0818c85b8b8a1ab4ceeef8d981c8956a681565b61027f6103df3660046118ef565b610900565b6102286103f23660046119a9565b610925565b6102287f65d7a28e3265b37a6474929f336521b332c1681b933f6cb9f3376673440d862a81565b60006001600160e01b03198216637965db0b60e01b148061044f57506301ffc9a760e01b6001600160e01b03198316145b92915050565b606060038054610464906119d3565b80601f0160208091040260200160405190810160405280929190818152602001828054610490906119d3565b80156104dd5780601f106104b2576101008083540402835291602001916104dd565b820191906000526020600020905b8154815290600101906020018083116104c057829003601f168201915b5050505050905090565b6000336104f5818585610950565b5060019392505050565b60003361050d858285610a74565b610518858585610aee565b506001949350505050565b60008281526006602052604090206001015461053e81610cc7565b6105488383610cd1565b505050565b6000610557610d57565b905090565b6001600160a01b03811633146105d15760405162461bcd60e51b815260206004820152602f60248201527f416363657373436f6e74726f6c3a2063616e206f6e6c792072656e6f756e636560448201526e103937b632b9903337b91039b2b63360891b60648201526084015b60405180910390fd5b6105db8282610e7e565b5050565b6000336104f58185856105f28383610925565b6105fc9190611a1e565b610950565b7f65d7a28e3265b37a6474929f336521b332c1681b933f6cb9f3376673440d862a61062b81610cc7565b610633610ee5565b50565b7f9f2df0fed2c77648de5860a4cc508cd0818c85b8b8a1ab4ceeef8d981c8956a661066081610cc7565b6105488383610f78565b6106333382611063565b61067f823383610a74565b6105db8282611063565b6001600160a01b03811660009081526007602052604081205461044f565b7f65d7a28e3265b37a6474929f336521b332c1681b933f6cb9f3376673440d862a6106d181610cc7565b6106336111bd565b60009182526006602090815260408084206001600160a01b0393909316845291905290205460ff1690565b606060048054610464906119d3565b600033816107218286610925565b9050838110156107815760405162461bcd60e51b815260206004820152602560248201527f45524332303a2064656372656173656420616c6c6f77616e63652062656c6f77604482015264207a65726f60d81b60648201526084016105c8565b6105188286868403610950565b6000336104f5818585610aee565b834211156107ec5760405162461bcd60e51b815260206004820152601d60248201527f45524332305065726d69743a206578706972656420646561646c696e6500000060448201526064016105c8565b60007f6e71edae12b1b97f4d1f60370fef10105fa2faae0126114a169c64845d6126c988888861081b8c611238565b6040805160208101969096526001600160a01b0394851690860152929091166060840152608083015260a082015260c0810186905260e001604051602081830303815290604052805190602001209050600061087682611260565b90506000610886828787876112ae565b9050896001600160a01b0316816001600160a01b0316146108e95760405162461bcd60e51b815260206004820152601e60248201527f45524332305065726d69743a20696e76616c6964207369676e6174757265000060448201526064016105c8565b6108f48a8a8a610950565b50505050505050505050565b60008281526006602052604090206001015461091b81610cc7565b6105488383610e7e565b6001600160a01b03918216600090815260016020908152604080832093909416825291909152205490565b6001600160a01b0383166109b25760405162461bcd60e51b8152602060048201526024808201527f45524332303a20617070726f76652066726f6d20746865207a65726f206164646044820152637265737360e01b60648201526084016105c8565b6001600160a01b038216610a135760405162461bcd60e51b815260206004820152602260248201527f45524332303a20617070726f766520746f20746865207a65726f206164647265604482015261737360f01b60648201526084016105c8565b6001600160a01b0383811660008181526001602090815260408083209487168084529482529182902085905590518481527f8c5be1e5ebec7d5bd14f71427d1e84f3dd0314c0f7b2291e5b200ac8c7c3b925910160405180910390a3505050565b6000610a808484610925565b90506000198114610ae85781811015610adb5760405162461bcd60e51b815260206004820152601d60248201527f45524332303a20696e73756666696369656e7420616c6c6f77616e636500000060448201526064016105c8565b610ae88484848403610950565b50505050565b6001600160a01b038316610b525760405162461bcd60e51b815260206004820152602560248201527f45524332303a207472616e736665722066726f6d20746865207a65726f206164604482015264647265737360d81b60648201526084016105c8565b6001600160a01b038216610bb45760405162461bcd60e51b815260206004820152602360248201527f45524332303a207472616e7366657220746f20746865207a65726f206164647260448201526265737360e81b60648201526084016105c8565b610bbf8383836112d6565b6001600160a01b03831660009081526020819052604090205481811015610c375760405162461bcd60e51b815260206004820152602660248201527f45524332303a207472616e7366657220616d6f756e7420657863656564732062604482015265616c616e636560d01b60648201526084016105c8565b6001600160a01b03808516600090815260208190526040808220858503905591851681529081208054849290610c6e908490611a1e565b92505081905550826001600160a01b0316846001600160a01b03167fddf252ad1be2c89b69c2b068fc378daa952ba7f163c4a11628f55a4df523b3ef84604051610cba91815260200190565b60405180910390a3610ae8565b610633813361131c565b610cdb82826106d9565b6105db5760008281526006602090815260408083206001600160a01b03851684529091529020805460ff19166001179055610d133390565b6001600160a01b0316816001600160a01b0316837f2f8788117e7eff1d82e926ec794901d17c78024a50270940304540a733656f0d60405160405180910390a45050565b6000306001600160a01b037f000000000000000000000000000000000000000000000000000000000000000016148015610db057507f000000000000000000000000000000000000000000000000000000000000000046145b15610dda57507f000000000000000000000000000000000000000000000000000000000000000090565b50604080517f00000000000000000000000000000000000000000000000000000000000000006020808301919091527f0000000000000000000000000000000000000000000000000000000000000000828401527f000000000000000000000000000000000000000000000000000000000000000060608301524660808301523060a0808401919091528351808403909101815260c0909201909252805191012090565b610e8882826106d9565b156105db5760008281526006602090815260408083206001600160a01b0385168085529252808320805460ff1916905551339285917ff6391f5c32d9c69d2a47ea670b442974b53935d1edc7fd64eb21e047a839171b9190a45050565b60055460ff16610f2e5760405162461bcd60e51b815260206004820152601460248201527314185d5cd8589b194e881b9bdd081c185d5cd95960621b60448201526064016105c8565b6005805460ff191690557f5db9ee0a495bf2e6ff9c91a7834c1ba4fdd244a5e8aa4e537bd38aeae4b073aa335b6040516001600160a01b03909116815260200160405180910390a1565b6001600160a01b038216610fce5760405162461bcd60e51b815260206004820152601f60248201527f45524332303a206d696e7420746f20746865207a65726f20616464726573730060448201526064016105c8565b610fda600083836112d6565b8060026000828254610fec9190611a1e565b90915550506001600160a01b03821660009081526020819052604081208054839290611019908490611a1e565b90915550506040518181526001600160a01b038316906000907fddf252ad1be2c89b69c2b068fc378daa952ba7f163c4a11628f55a4df523b3ef9060200160405180910390a35050565b6001600160a01b0382166110c35760405162461bcd60e51b815260206004820152602160248201527f45524332303a206275726e2066726f6d20746865207a65726f206164647265736044820152607360f81b60648201526084016105c8565b6110cf826000836112d6565b6001600160a01b038216600090815260208190526040902054818110156111435760405162461bcd60e51b815260206004820152602260248201527f45524332303a206275726e20616d6f756e7420657863656564732062616c616e604482015261636560f01b60648201526084016105c8565b6001600160a01b0383166000908152602081905260408120838303905560028054849290611172908490611a36565b90915550506040518281526000906001600160a01b038516907fddf252ad1be2c89b69c2b068fc378daa952ba7f163c4a11628f55a4df523b3ef9060200160405180910390a3505050565b60055460ff16156112035760405162461bcd60e51b815260206004820152601060248201526f14185d5cd8589b194e881c185d5cd95960821b60448201526064016105c8565b6005805460ff191660011790557f62e78cea01bee320cd4e420270b5ea74000d11b0c9f74754ebdbfc544b05a258610f5b3390565b6001600160a01b03811660009081526007602052604090208054600181018255905b50919050565b600061044f61126d610d57565b8360405161190160f01b6020820152602281018390526042810182905260009060620160405160208183030381529060405280519060200120905092915050565b60008060006112bf87878787611380565b915091506112cc8161146d565b5095945050505050565b60055460ff16156105485760405162461bcd60e51b815260206004820152601060248201526f14185d5cd8589b194e881c185d5cd95960821b60448201526064016105c8565b61132682826106d9565b6105db5761133e816001600160a01b03166014611628565b611349836020611628565b60405160200161135a929190611a4d565b60408051601f198184030181529082905262461bcd60e51b82526105c891600401611821565b6000807f7fffffffffffffffffffffffffffffff5d576e7357a4501ddfe92f46681b20a08311156113b75750600090506003611464565b8460ff16601b141580156113cf57508460ff16601c14155b156113e05750600090506004611464565b6040805160008082526020820180845289905260ff881692820192909252606081018690526080810185905260019060a0016020604051602081039080840390855afa158015611434573d6000803e3d6000fd5b5050604051601f1901519150506001600160a01b03811661145d57600060019250925050611464565b9150600090505b94509492505050565b600081600481111561148157611481611ac2565b141561148a5750565b600181600481111561149e5761149e611ac2565b14156114ec5760405162461bcd60e51b815260206004820152601860248201527f45434453413a20696e76616c6964207369676e6174757265000000000000000060448201526064016105c8565b600281600481111561150057611500611ac2565b141561154e5760405162461bcd60e51b815260206004820152601f60248201527f45434453413a20696e76616c6964207369676e6174757265206c656e6774680060448201526064016105c8565b600381600481111561156257611562611ac2565b14156115bb5760405162461bcd60e51b815260206004820152602260248201527f45434453413a20696e76616c6964207369676e6174757265202773272076616c604482015261756560f01b60648201526084016105c8565b60048160048111156115cf576115cf611ac2565b14156106335760405162461bcd60e51b815260206004820152602260248201527f45434453413a20696e76616c6964207369676e6174757265202776272076616c604482015261756560f01b60648201526084016105c8565b60606000611637836002611ad8565b611642906002611a1e565b67ffffffffffffffff81111561165a5761165a611af7565b6040519080825280601f01601f191660200182016040528015611684576020820181803683370190505b509050600360fc1b8160008151811061169f5761169f611b0d565b60200101906001600160f81b031916908160001a905350600f60fb1b816001815181106116ce576116ce611b0d565b60200101906001600160f81b031916908160001a90535060006116f2846002611ad8565b6116fd906001611a1e565b90505b6001811115611775576f181899199a1a9b1b9c1cb0b131b232b360811b85600f166010811061173157611731611b0d565b1a60f81b82828151811061174757611747611b0d565b60200101906001600160f81b031916908160001a90535060049490941c9361176e81611b23565b9050611700565b5083156117c45760405162461bcd60e51b815260206004820181905260248201527f537472696e67733a20686578206c656e67746820696e73756666696369656e7460448201526064016105c8565b9392505050565b6000602082840312156117dd57600080fd5b81356001600160e01b0319811681146117c457600080fd5b60005b838110156118105781810151838201526020016117f8565b83811115610ae85750506000910152565b60208152600082518060208401526118408160408501602087016117f5565b601f01601f19169190910160400192915050565b80356001600160a01b038116811461186b57600080fd5b919050565b6000806040838503121561188357600080fd5b61188c83611854565b946020939093013593505050565b6000806000606084860312156118af57600080fd5b6118b884611854565b92506118c660208501611854565b9150604084013590509250925092565b6000602082840312156118e857600080fd5b5035919050565b6000806040838503121561190257600080fd5b8235915061191260208401611854565b90509250929050565b60006020828403121561192d57600080fd5b6117c482611854565b600080600080600080600060e0888a03121561195157600080fd5b61195a88611854565b965061196860208901611854565b95506040880135945060608801359350608088013560ff8116811461198c57600080fd5b9699959850939692959460a0840135945060c09093013592915050565b600080604083850312156119bc57600080fd5b6119c583611854565b915061191260208401611854565b600181811c908216806119e757607f821691505b6020821081141561125a57634e487b7160e01b600052602260045260246000fd5b634e487b7160e01b600052601160045260246000fd5b60008219821115611a3157611a31611a08565b500190565b600082821015611a4857611a48611a08565b500390565b7f416363657373436f6e74726f6c3a206163636f756e7420000000000000000000815260008351611a858160178501602088016117f5565b7001034b99036b4b9b9b4b733903937b6329607d1b6017918401918201528351611ab68160288401602088016117f5565b01602801949350505050565b634e487b7160e01b600052602160045260246000fd5b6000816000190483118215151615611af257611af2611a08565b500290565b634e487b7160e01b600052604160045260246000fd5b634e487b7160e01b600052603260045260246000fd5b600081611b3257611b32611a08565b50600019019056fea264697066735822122083b78225516cd6cdd2eef1939619126c023398a1472808bf3ff7298462205fae64736f6c634300080a0033",
    "sourcePath": "f:/blockchain/hardhat-deploy/contracts/ERC20Token.sol",
    "compiler": {
        "name": "solc",
        "version": "0.8.10+commit.fc410830"
    },
    "functionHashes": {
        "DEFAULT_ADMIN_ROLE()": "a217fddf",
        "DOMAIN_SEPARATOR()": "3644e515",
        "MINTER_ROLE()": "d5391393",
        "PAUSER_ROLE()": "e63ab1e9",
        "allowance(address,address)": "dd62ed3e",
        "approve(address,uint256)": "095ea7b3",
        "balanceOf(address)": "70a08231",
        "burn(uint256)": "42966c68",
        "burnFrom(address,uint256)": "79cc6790",
        "decimals()": "313ce567",
        "decreaseAllowance(address,uint256)": "a457c2d7",
        "getRoleAdmin(bytes32)": "248a9ca3",
        "grantRole(bytes32,address)": "2f2ff15d",
        "hasRole(bytes32,address)": "91d14854",
        "increaseAllowance(address,uint256)": "39509351",
        "mint(address,uint256)": "40c10f19",
        "name()": "06fdde03",
        "nonces(address)": "7ecebe00",
        "pause()": "8456cb59",
        "paused()": "5c975abb",
        "permit(address,address,uint256,uint256,uint8,bytes32,bytes32)": "d505accf",
        "renounceRole(bytes32,address)": "36568abe",
        "revokeRole(bytes32,address)": "d547741f",
        "supportsInterface(bytes4)": "01ffc9a7",
        "symbol()": "95d89b41",
        "totalSupply()": "18160ddd",
        "transfer(address,uint256)": "a9059cbb",
        "transferFrom(address,address,uint256)": "23b872dd",
        "unpause()": "3f4ba83a"
    },
    "gasEstimates": {
        "creation": {
            "codeDepositCost": "1404800",
            "executionCost": "infinite",
            "totalCost": "infinite"
        },
        "external": {
            "DEFAULT_ADMIN_ROLE()": "240",
            "DOMAIN_SEPARATOR()": "infinite",
            "MINTER_ROLE()": "239",
            "PAUSER_ROLE()": "305",
            "allowance(address,address)": "infinite",
            "approve(address,uint256)": "24681",
            "balanceOf(address)": "2608",
            "burn(uint256)": "53125",
            "burnFrom(address,uint256)": "79814",
            "decimals()": "223",
            "decreaseAllowance(address,uint256)": "27006",
            "getRoleAdmin(bytes32)": "2534",
            "grantRole(bytes32,address)": "infinite",
            "hasRole(bytes32,address)": "2743",
            "increaseAllowance(address,uint256)": "27012",
            "mint(address,uint256)": "infinite",
            "name()": "infinite",
            "nonces(address)": "2616",
            "pause()": "infinite",
            "paused()": "2339",
            "permit(address,address,uint256,uint256,uint8,bytes32,bytes32)": "infinite",
            "renounceRole(bytes32,address)": "29091",
            "revokeRole(bytes32,address)": "infinite",
            "supportsInterface(bytes4)": "473",
            "symbol()": "infinite",
            "totalSupply()": "2327",
            "transfer(address,uint256)": "53425",
            "transferFrom(address,address,uint256)": "infinite",
            "unpause()": "infinite"
        },
        "internal": {
            "_beforeTokenTransfer(address,address,uint256)": "infinite"
        }
    }
}