{
  "address": "0xe7f1725E7734CE288F8367e1Bb143E90bb3F0512",
  "abi": [
    {
      "inputs": [
        {
          "internalType": "address",
          "name": "_exchange",
          "type": "address"
        }
      ],
      "stateMutability": "nonpayable",
      "type": "constructor"
    },
    {
      "anonymous": false,
      "inputs": [
        {
          "indexed": true,
          "internalType": "address",
          "name": "previousOwner",
          "type": "address"
        },
        {
          "indexed": true,
          "internalType": "address",
          "name": "newOwner",
          "type": "address"
        }
      ],
      "name": "OwnershipTransferred",
      "type": "event"
    },
    {
      "inputs": [
        {
          "internalType": "bytes32",
          "name": "hash",
          "type": "bytes32"
        },
        {
          "internalType": "bytes",
          "name": "signature",
          "type": "bytes"
        }
      ],
      "name": "callExchange",
      "outputs": [],
      "stateMutability": "nonpayable",
      "type": "function"
    },
    {
      "inputs": [],
      "name": "exchange",
      "outputs": [
        {
          "internalType": "address",
          "name": "",
          "type": "address"
        }
      ],
      "stateMutability": "view",
      "type": "function"
    },
    {
      "inputs": [
        {
          "internalType": "bytes32",
          "name": "hash",
          "type": "bytes32"
        },
        {
          "internalType": "bytes",
          "name": "signature",
          "type": "bytes"
        }
      ],
      "name": "isValidSignature",
      "outputs": [
        {
          "internalType": "bytes4",
          "name": "magicValue",
          "type": "bytes4"
        }
      ],
      "stateMutability": "view",
      "type": "function"
    },
    {
      "inputs": [],
      "name": "isValidate",
      "outputs": [
        {
          "internalType": "bool",
          "name": "",
          "type": "bool"
        }
      ],
      "stateMutability": "view",
      "type": "function"
    },
    {
      "inputs": [],
      "name": "owner",
      "outputs": [
        {
          "internalType": "address",
          "name": "",
          "type": "address"
        }
      ],
      "stateMutability": "view",
      "type": "function"
    },
    {
      "inputs": [],
      "name": "renounceOwnership",
      "outputs": [],
      "stateMutability": "nonpayable",
      "type": "function"
    },
    {
      "inputs": [
        {
          "internalType": "address",
          "name": "newOwner",
          "type": "address"
        }
      ],
      "name": "transferOwnership",
      "outputs": [],
      "stateMutability": "nonpayable",
      "type": "function"
    }
  ],
  "transactionHash": "0xf0a19aa59c248686c00d5325aed8e5828302d465e7848caab10a663eaa53713e",
  "args": [
    "0x5FbDB2315678afecb367f032d93F642f64180aa3"
  ],
  "numDeployments": 1,
  "solcInputHash": "5c63416602024126f5159316e55efd60",
  "bytecode": "0x608060405234801561001057600080fd5b5060405161093538038061093583398101604081905261002f916100ad565b6100383361005d565b600180546001600160a01b0319166001600160a01b03929092169190911790556100dd565b600080546001600160a01b038381166001600160a01b0319831681178455604051919092169283917f8be0079c531659141344cd1fd0a4f28419497f9722a3daafe3b4186f6b6457e09190a35050565b6000602082840312156100bf57600080fd5b81516001600160a01b03811681146100d657600080fd5b9392505050565b610849806100ec6000396000f3fe608060405234801561001057600080fd5b506004361061007d5760003560e01c80638da5cb5b1161005b5780638da5cb5b146100e1578063a619a83d14610106578063d2f7265a14610119578063f2fde38b1461012c57600080fd5b80631626ba7e1461008257806324a872f8146100b3578063715018a6146100d7575b600080fd5b61009561009036600461064e565b61013f565b6040516001600160e01b031990911681526020015b60405180910390f35b6000546100c790600160a01b900460ff1681565b60405190151581526020016100aa565b6100df610183565b005b6000546001600160a01b03165b6040516001600160a01b0390911681526020016100aa565b6100df610114366004610709565b610197565b6001546100ee906001600160a01b031681565b6100df61013a366004610785565b610204565b600080546001600160a01b03166101568484610282565b6001600160a01b0316036101725750630b135d3f60e11b61017d565b506001600160e01b03195b92915050565b61018b6102a6565b6101956000610300565b565b60015460405163380b498160e21b81526001600160a01b039091169063e02d2604906101cd9030908790879087906004016107b5565b600060405180830381600087803b1580156101e757600080fd5b505af11580156101fb573d6000803e3d6000fd5b50505050505050565b61020c6102a6565b6001600160a01b0381166102765760405162461bcd60e51b815260206004820152602660248201527f4f776e61626c653a206e6577206f776e657220697320746865207a65726f206160448201526564647265737360d01b60648201526084015b60405180910390fd5b61027f81610300565b50565b60008060006102918585610350565b9150915061029e81610395565b509392505050565b6000546001600160a01b031633146101955760405162461bcd60e51b815260206004820181905260248201527f4f776e61626c653a2063616c6c6572206973206e6f7420746865206f776e6572604482015260640161026d565b600080546001600160a01b038381166001600160a01b0319831681178455604051919092169283917f8be0079c531659141344cd1fd0a4f28419497f9722a3daafe3b4186f6b6457e09190a35050565b60008082516041036103865760208301516040840151606085015160001a61037a8782858561054b565b9450945050505061038e565b506000905060025b9250929050565b60008160048111156103a9576103a96107fd565b036103b15750565b60018160048111156103c5576103c56107fd565b036104125760405162461bcd60e51b815260206004820152601860248201527f45434453413a20696e76616c6964207369676e61747572650000000000000000604482015260640161026d565b6002816004811115610426576104266107fd565b036104735760405162461bcd60e51b815260206004820152601f60248201527f45434453413a20696e76616c6964207369676e6174757265206c656e67746800604482015260640161026d565b6003816004811115610487576104876107fd565b036104df5760405162461bcd60e51b815260206004820152602260248201527f45434453413a20696e76616c6964207369676e6174757265202773272076616c604482015261756560f01b606482015260840161026d565b60048160048111156104f3576104f36107fd565b0361027f5760405162461bcd60e51b815260206004820152602260248201527f45434453413a20696e76616c6964207369676e6174757265202776272076616c604482015261756560f01b606482015260840161026d565b6000807f7fffffffffffffffffffffffffffffff5d576e7357a4501ddfe92f46681b20a0831115610582575060009050600361062f565b8460ff16601b1415801561059a57508460ff16601c14155b156105ab575060009050600461062f565b6040805160008082526020820180845289905260ff881692820192909252606081018690526080810185905260019060a0016020604051602081039080840390855afa1580156105ff573d6000803e3d6000fd5b5050604051601f1901519150506001600160a01b0381166106285760006001925092505061062f565b9150600090505b94509492505050565b634e487b7160e01b600052604160045260246000fd5b6000806040838503121561066157600080fd5b82359150602083013567ffffffffffffffff8082111561068057600080fd5b818501915085601f83011261069457600080fd5b8135818111156106a6576106a6610638565b604051601f8201601f19908116603f011681019083821181831017156106ce576106ce610638565b816040528281528860208487010111156106e757600080fd5b8260208601602083013760006020848301015280955050505050509250929050565b60008060006040848603121561071e57600080fd5b83359250602084013567ffffffffffffffff8082111561073d57600080fd5b818601915086601f83011261075157600080fd5b81358181111561076057600080fd5b87602082850101111561077257600080fd5b6020830194508093505050509250925092565b60006020828403121561079757600080fd5b81356001600160a01b03811681146107ae57600080fd5b9392505050565b6001600160a01b0385168152602081018490526060604082018190528101829052818360808301376000818301608090810191909152601f909201601f191601019392505050565b634e487b7160e01b600052602160045260246000fdfea2646970667358221220a701124c323f4a425a0da147ad120ad86c65ba619e109f94616ebed63fbfe28064736f6c63430008110033",
  "devdoc": {
    "kind": "dev",
    "methods": {
      "isValidSignature(bytes32,bytes)": {
        "details": "Should return whether the signature provided is valid for the provided data",
        "params": {
          "hash": "Hash of the data to be signed",
          "signature": "Signature byte array associated with _data"
        }
      },
      "owner()": {
        "details": "Returns the address of the current owner."
      },
      "renounceOwnership()": {
        "details": "Leaves the contract without owner. It will not be possible to call `onlyOwner` functions anymore. Can only be called by the current owner. NOTE: Renouncing ownership will leave the contract without an owner, thereby removing any functionality that is only available to the owner."
      },
      "transferOwnership(address)": {
        "details": "Transfers ownership of the contract to a new account (`newOwner`). Can only be called by the current owner."
      }
    },
    "version": 1
  },
  "userdoc": {
    "kind": "user",
    "methods": {},
    "version": 1
  },
  "storageLayout": {
    "storage": [
      {
        "astId": 7,
        "contract": "contracts/target/transferToken/ERC1271Caller.sol:ERC1271Caller",
        "label": "_owner",
        "offset": 0,
        "slot": "0",
        "type": "t_address"
      },
      {
        "astId": 928,
        "contract": "contracts/target/transferToken/ERC1271Caller.sol:ERC1271Caller",
        "label": "isValidate",
        "offset": 20,
        "slot": "0",
        "type": "t_bool"
      },
      {
        "astId": 930,
        "contract": "contracts/target/transferToken/ERC1271Caller.sol:ERC1271Caller",
        "label": "exchange",
        "offset": 0,
        "slot": "1",
        "type": "t_address"
      }
    ],
    "types": {
      "t_address": {
        "encoding": "inplace",
        "label": "address",
        "numberOfBytes": "20"
      },
      "t_bool": {
        "encoding": "inplace",
        "label": "bool",
        "numberOfBytes": "1"
      }
    }
  }
}