{
  "address": "0x35d87b5298E97d5102811202128092DD271bD9aD",
  "abi": [
    {
      "inputs": [],
      "stateMutability": "nonpayable",
      "type": "constructor"
    },
    {
      "inputs": [],
      "name": "DOMAIN_SEPARATOR",
      "outputs": [
        {
          "internalType": "bytes32",
          "name": "",
          "type": "bytes32"
        }
      ],
      "stateMutability": "view",
      "type": "function"
    },
    {
      "inputs": [
        {
          "internalType": "address",
          "name": "maker",
          "type": "address"
        },
        {
          "internalType": "bytes32",
          "name": "hash",
          "type": "bytes32"
        },
        {
          "internalType": "bytes",
          "name": "signature",
          "type": "bytes"
        }
      ],
      "name": "exchange",
      "outputs": [],
      "stateMutability": "nonpayable",
      "type": "function"
    },
    {
      "inputs": [
        {
          "internalType": "address",
          "name": "owner",
          "type": "address"
        },
        {
          "internalType": "uint256",
          "name": "tokenId",
          "type": "uint256"
        }
      ],
      "name": "sigHash",
      "outputs": [
        {
          "internalType": "bytes32",
          "name": "",
          "type": "bytes32"
        }
      ],
      "stateMutability": "view",
      "type": "function"
    },
    {
      "inputs": [
        {
          "internalType": "address",
          "name": "owner",
          "type": "address"
        },
        {
          "internalType": "uint256",
          "name": "tokenId",
          "type": "uint256"
        }
      ],
      "name": "structHash",
      "outputs": [
        {
          "internalType": "bytes32",
          "name": "",
          "type": "bytes32"
        }
      ],
      "stateMutability": "pure",
      "type": "function"
    },
    {
      "inputs": [],
      "name": "success",
      "outputs": [
        {
          "internalType": "bool",
          "name": "",
          "type": "bool"
        }
      ],
      "stateMutability": "view",
      "type": "function"
    },
    {
      "inputs": [
        {
          "internalType": "address",
          "name": "maker",
          "type": "address"
        },
        {
          "internalType": "bytes32",
          "name": "hash",
          "type": "bytes32"
        },
        {
          "internalType": "bytes",
          "name": "signature",
          "type": "bytes"
        }
      ],
      "name": "validateContractAuthorization",
      "outputs": [
        {
          "internalType": "bool",
          "name": "",
          "type": "bool"
        }
      ],
      "stateMutability": "view",
      "type": "function"
    }
  ],
  "transactionHash": "0xd31aedeb68110182e8958bcb4acd6fbcbafec96f5b9e378467b5c91202bb4953",
  "args": [],
  "numDeployments": 1,
  "solcInputHash": "701cfb6d7ccf43035c198b12d037ce29",
  "bytecode": "0x61014060405234801561001157600080fd5b50604080518082018252600881526765786368616e676560c01b6020808301918252835180850190945260018452603160f81b908401528151902060e08190527fc89efdaa54c0f20c7adf612882df0950f5a951637e0307cdcb4c672f298b8bc66101008190524660a0529192917f8b73c3c69bb8fe3d512ecc4cf759cc79239f7b179b0ffacaa9a75d522b39400f6100ef8184846040805160208101859052908101839052606081018290524660808201523060a082015260009060c0016040516020818303038152906040528051906020012090509392505050565b6080523060c052610120525061010492505050565b60805160a05160c05160e05161010051610120516105d06101536000396000610316015260006103650152600061034001526000610299015260006102c3015260006102ed01526105d06000f3fe608060405234801561001057600080fd5b50600436106100625760003560e01c80630b93381b146100675780633644e515146100895780633d04cbbd1461009f5780636298ab09146100b2578063c73a541f146100c5578063e02d2604146100d8575b600080fd5b6000546100749060ff1681565b60405190151581526020015b60405180910390f35b6100916100ed565b604051908152602001610080565b6100916100ad36600461040f565b6100fc565b6100916100c036600461040f565b610117565b6100746100d336600461044f565b61017e565b6100eb6100e636600461044f565b61021f565b005b60006100f761028c565b905090565b600061011061010b8484610117565b6103b3565b9392505050565b604080517fdefe207773f173710b68b48105778790129ea1a4d26e30147faa0de5ff6490ee60208201526001600160a01b03841691810191909152606081018290526000906080015b60405160208183030381529060405280519060200120905092915050565b6000833b151580156102085750604051630b135d3f60e11b808252906001600160a01b03861690631626ba7e906101bb908790879060040161051a565b602060405180830381865afa1580156101d8573d6000803e3d6000fd5b505050506040513d601f19601f820116820180604052508101906101fc9190610570565b6001600160e01b031916145b1561021557506001610110565b5060009392505050565b61022a83838361017e565b61027a5760405162461bcd60e51b815260206004820152601e60248201527f45786368616e67653a207369676e617475726520696e76616c69646174650000604482015260640160405180910390fd5b50506000805460ff1916600117905550565b6000306001600160a01b037f0000000000000000000000000000000000000000000000000000000000000000161480156102e557507f000000000000000000000000000000000000000000000000000000000000000046145b1561030f57507f000000000000000000000000000000000000000000000000000000000000000090565b50604080517f00000000000000000000000000000000000000000000000000000000000000006020808301919091527f0000000000000000000000000000000000000000000000000000000000000000828401527f000000000000000000000000000000000000000000000000000000000000000060608301524660808301523060a0808401919091528351808403909101815260c0909201909252805191012090565b60006103c66103c061028c565b836103cc565b92915050565b60405161190160f01b60208201526022810183905260428101829052600090606201610160565b80356001600160a01b038116811461040a57600080fd5b919050565b6000806040838503121561042257600080fd5b61042b836103f3565b946020939093013593505050565b634e487b7160e01b600052604160045260246000fd5b60008060006060848603121561046457600080fd5b61046d846103f3565b925060208401359150604084013567ffffffffffffffff8082111561049157600080fd5b818601915086601f8301126104a557600080fd5b8135818111156104b7576104b7610439565b604051601f8201601f19908116603f011681019083821181831017156104df576104df610439565b816040528281528960208487010111156104f857600080fd5b8260208601602083013760006020848301015280955050505050509250925092565b82815260006020604081840152835180604085015260005b8181101561054e57858101830151858201606001528201610532565b506000606082860101526060601f19601f830116850101925050509392505050565b60006020828403121561058257600080fd5b81516001600160e01b03198116811461011057600080fdfea2646970667358221220531f2f528b3a8f53da80cd649ef54dcef3d459396a7763fbd250aa4bf6f619fe64736f6c63430008110033",
  "devdoc": {
    "kind": "dev",
    "methods": {},
    "version": 1
  },
  "userdoc": {
    "kind": "user",
    "methods": {},
    "version": 1
  },
  "storageLayout": {
    "storage": [
      {
        "astId": 11104,
        "contract": "contracts/target/transferToken/Exchange.sol:Exchange",
        "label": "success",
        "offset": 0,
        "slot": "0",
        "type": "t_bool"
      }
    ],
    "types": {
      "t_bool": {
        "encoding": "inplace",
        "label": "bool",
        "numberOfBytes": "1"
      }
    }
  }
}