{
  "address": "0x5FbDB2315678afecb367f032d93F642f64180aa3",
  "abi": [
    {
      "inputs": [
        {
          "internalType": "string",
          "name": "_greeting",
          "type": "string"
        }
      ],
      "stateMutability": "nonpayable",
      "type": "constructor"
    },
    {
      "anonymous": false,
      "inputs": [
        {
          "indexed": true,
          "internalType": "address",
          "name": "user",
          "type": "address"
        },
        {
          "indexed": false,
          "internalType": "string",
          "name": "greeting",
          "type": "string"
        }
      ],
      "name": "SetGreeting",
      "type": "event"
    },
    {
      "inputs": [
        {
          "internalType": "address",
          "name": "user",
          "type": "address"
        }
      ],
      "name": "getUserSetGreeting",
      "outputs": [
        {
          "internalType": "string",
          "name": "",
          "type": "string"
        }
      ],
      "stateMutability": "view",
      "type": "function"
    },
    {
      "inputs": [],
      "name": "greet",
      "outputs": [
        {
          "internalType": "string",
          "name": "",
          "type": "string"
        }
      ],
      "stateMutability": "view",
      "type": "function"
    },
    {
      "inputs": [
        {
          "internalType": "string",
          "name": "_greeting",
          "type": "string"
        }
      ],
      "name": "setGreeting",
      "outputs": [],
      "stateMutability": "nonpayable",
      "type": "function"
    }
  ],
  "transactionHash": "0xf3a7db3f0d022b7d5f5ff116458fc0922c6aac3037b29a0c62631b9586f40294",
  "args": [
    "deployer greeting"
  ],
  "numDeployments": 1,
  "solcInputHash": "84b63fdf3b9ac4cb470e475e86fe4147",
  "bytecode": "0x60806040523480156200001157600080fd5b5060405162000aa638038062000aa6833981016040819052620000349162000199565b6200006460405180606001604052806022815260200162000a8460229139826200008160201b620002f11760201c565b805162000079906000906020840190620000f3565b50506200032d565b620000ce82826040516024016200009a92919062000275565b60408051601f198184030181529190526020810180516001600160e01b03908116634b5c427760e01b17909152620000d216565b5050565b80516a636f6e736f6c652e6c6f67602083016000808483855afa5050505050565b8280546200010190620002da565b90600052602060002090601f01602090048101928262000125576000855562000170565b82601f106200014057805160ff191683800117855562000170565b8280016001018555821562000170579182015b828111156200017057825182559160200191906001019062000153565b506200017e92915062000182565b5090565b5b808211156200017e576000815560010162000183565b600060208284031215620001ab578081fd5b81516001600160401b0380821115620001c2578283fd5b818401915084601f830112620001d6578283fd5b815181811115620001eb57620001eb62000317565b604051601f8201601f19168101602001838111828210171562000212576200021262000317565b6040528181528382016020018710156200022a578485fd5b6200023d826020830160208701620002a7565b9695505050505050565b6000815180845262000261816020860160208601620002a7565b601f01601f19169290920160200192915050565b6000604082526200028a604083018562000247565b82810360208401526200029e818562000247565b95945050505050565b60005b83811015620002c4578181015183820152602001620002aa565b83811115620002d4576000848401525b50505050565b600281046001821680620002ef57607f821691505b602082108114156200031157634e487b7160e01b600052602260045260246000fd5b50919050565b634e487b7160e01b600052604160045260246000fd5b610747806200033d6000396000f3fe608060405234801561001057600080fd5b50600436106100415760003560e01c8063956b42e714610046578063a41368621461006f578063cfae321714610084575b600080fd5b610059610054366004610440565b61008c565b604051610066919061055a565b60405180910390f35b61008261007d36600461046e565b610138565b005b61005961025f565b6001600160a01b03811660009081526001602052604090208054606091906100b39061069d565b80601f01602080910402602001604051908101604052809291908181526020018280546100df9061069d565b801561012c5780601f106101015761010080835404028352916020019161012c565b820191906000526020600020905b81548152906001019060200180831161010f57829003601f168201915b50505050509050919050565b6101e56040518060600160405280602381526020016106ef60239139600080546101619061069d565b80601f016020809104026020016040519081016040528092919081815260200182805461018d9061069d565b80156101da5780601f106101af576101008083540402835291602001916101da565b820191906000526020600020905b8154815290600101906020018083116101bd57829003601f168201915b50505050508361033a565b80516101f89060009060208401906103a7565b503360009081526001602090815260409091208251610219928401906103a7565b50336001600160a01b03167ffae51f5480b362c362b5f790e2a1b86b677c562bf1c1db0094505abfe05ef911600060405161025491906105de565b60405180910390a250565b60606000805461026e9061069d565b80601f016020809104026020016040519081016040528092919081815260200182805461029a9061069d565b80156102e75780601f106102bc576101008083540402835291602001916102e7565b820191906000526020600020905b8154815290600101906020018083116102ca57829003601f168201915b5050505050905090565b610336828260405160240161030792919061056d565b60408051601f198184030181529190526020810180516001600160e01b0316634b5c427760e01b179052610386565b5050565b6103818383836040516024016103529392919061059b565b60408051601f198184030181529190526020810180516001600160e01b0316632ced7cef60e01b179052610386565b505050565b80516a636f6e736f6c652e6c6f67602083016000808483855afa5050505050565b8280546103b39061069d565b90600052602060002090601f0160209004810192826103d5576000855561041b565b82601f106103ee57805160ff191683800117855561041b565b8280016001018555821561041b579182015b8281111561041b578251825591602001919060010190610400565b5061042792915061042b565b5090565b5b80821115610427576000815560010161042c565b600060208284031215610451578081fd5b81356001600160a01b0381168114610467578182fd5b9392505050565b60006020808385031215610480578182fd5b823567ffffffffffffffff80821115610497578384fd5b818501915085601f8301126104aa578384fd5b8135818111156104bc576104bc6106d8565b604051601f8201601f19168101850183811182821017156104df576104df6106d8565b60405281815283820185018810156104f5578586fd5b818585018683013790810190930193909352509392505050565b60008151808452815b8181101561053457602081850181015186830182015201610518565b818111156105455782602083870101525b50601f01601f19169290920160200192915050565b600060208252610467602083018461050f565b600060408252610580604083018561050f565b8281036020840152610592818561050f565b95945050505050565b6000606082526105ae606083018661050f565b82810360208401526105c0818661050f565b905082810360408401526105d4818561050f565b9695505050505050565b600060208083528184548360028204905060018083168061060057607f831692505b85831081141561061e57634e487b7160e01b87526022600452602487fd5b61062a83878a01610694565b81801561063e576001811461064f57610679565b60ff19861682528782019650610679565b6106588b610688565b895b868110156106735781548482015290850190890161065a565b83019750505b50949998505050505050505050565b60009081526020902090565b90815260200190565b6002810460018216806106b157607f821691505b602082108114156106d257634e487b7160e01b600052602260045260246000fd5b50919050565b634e487b7160e01b600052604160045260246000fdfe4368616e67696e67206772656574696e672066726f6d202725732720746f2027257327a26469706673582212200b30d303f924876b67dc8fb20e1f27d7dc81dcb2a4901fae41ca0b98afb4ffb664736f6c634300080000334465706c6f79696e67206120477265657465722077697468206772656574696e673a",
  "devdoc": {
    "kind": "dev",
    "methods": {},
    "version": 1
  },
  "userdoc": {
    "kind": "user",
    "methods": {},
    "version": 1
  },
  "storageLayout": {
    "storage": [
      {
        "astId": 4,
        "contract": "contracts/Greeter.sol:Greeter",
        "label": "greeting",
        "offset": 0,
        "slot": "0",
        "type": "t_string_storage"
      },
      {
        "astId": 8,
        "contract": "contracts/Greeter.sol:Greeter",
        "label": "userToGreeting",
        "offset": 0,
        "slot": "1",
        "type": "t_mapping(t_address,t_string_storage)"
      }
    ],
    "types": {
      "t_address": {
        "encoding": "inplace",
        "label": "address",
        "numberOfBytes": "20"
      },
      "t_mapping(t_address,t_string_storage)": {
        "encoding": "mapping",
        "key": "t_address",
        "label": "mapping(address => string)",
        "numberOfBytes": "32",
        "value": "t_string_storage"
      },
      "t_string_storage": {
        "encoding": "bytes",
        "label": "string",
        "numberOfBytes": "32"
      }
    }
  }
}