{
  "address": "0xA9931837318022A49310A43A87944DDC11A55E19",
  "abi": [
    {
      "inputs": [
        {
          "internalType": "string",
          "name": "_greeting",
          "type": "string"
        }
      ],
      "stateMutability": "nonpayable",
      "type": "constructor"
    },
    {
      "anonymous": false,
      "inputs": [
        {
          "indexed": true,
          "internalType": "address",
          "name": "user",
          "type": "address"
        },
        {
          "indexed": false,
          "internalType": "string",
          "name": "greeting",
          "type": "string"
        }
      ],
      "name": "SetGreeting",
      "type": "event"
    },
    {
      "inputs": [
        {
          "internalType": "address",
          "name": "user",
          "type": "address"
        }
      ],
      "name": "getUserSetGreeting",
      "outputs": [
        {
          "internalType": "string",
          "name": "",
          "type": "string"
        }
      ],
      "stateMutability": "view",
      "type": "function"
    },
    {
      "inputs": [],
      "name": "greet",
      "outputs": [
        {
          "internalType": "string",
          "name": "",
          "type": "string"
        }
      ],
      "stateMutability": "view",
      "type": "function"
    },
    {
      "inputs": [
        {
          "internalType": "string",
          "name": "_greeting",
          "type": "string"
        }
      ],
      "name": "setGreeting",
      "outputs": [],
      "stateMutability": "nonpayable",
      "type": "function"
    }
  ],
  "transactionHash": "0x9c13378bd4f81235a48efb035315a7152e02d7e3ac0e2677175fd4cd97cccad4",
  "args": [
    "deployer greeting"
  ],
  "numDeployments": 1,
  "solcInputHash": "9f19f7142cbf48703f374bb490b52144",
  "bytecode": "0x60806040523480156200001157600080fd5b5060405162000f1f38038062000f1f833981810160405281019062000037919062000278565b6200006760405180606001604052806022815260200162000efd60229139826200008760201b6200037d1760201c565b80600090805190602001906200007f92919062000156565b5050620004c5565b620001298282604051602401620000a0929190620002fe565b6040516020818303038152906040527f4b5c4277000000000000000000000000000000000000000000000000000000007bffffffffffffffffffffffffffffffffffffffffffffffffffffffff19166020820180517bffffffffffffffffffffffffffffffffffffffffffffffffffffffff83818316178352505050506200012d60201b60201c565b5050565b60008151905060006a636f6e736f6c652e6c6f679050602083016000808483855afa5050505050565b8280546200016490620003ea565b90600052602060002090601f016020900481019282620001885760008555620001d4565b82601f10620001a357805160ff1916838001178555620001d4565b82800160010185558215620001d4579182015b82811115620001d3578251825591602001919060010190620001b6565b5b509050620001e39190620001e7565b5090565b5b8082111562000202576000816000905550600101620001e8565b5090565b60006200021d620002178462000362565b62000339565b9050828152602081018484840111156200023657600080fd5b62000243848285620003b4565b509392505050565b600082601f8301126200025d57600080fd5b81516200026f84826020860162000206565b91505092915050565b6000602082840312156200028b57600080fd5b600082015167ffffffffffffffff811115620002a657600080fd5b620002b4848285016200024b565b91505092915050565b6000620002ca8262000398565b620002d68185620003a3565b9350620002e8818560208601620003b4565b620002f381620004b4565b840191505092915050565b600060408201905081810360008301526200031a8185620002bd565b90508181036020830152620003308184620002bd565b90509392505050565b60006200034562000358565b905062000353828262000420565b919050565b6000604051905090565b600067ffffffffffffffff82111562000380576200037f62000485565b5b6200038b82620004b4565b9050602081019050919050565b600081519050919050565b600082825260208201905092915050565b60005b83811015620003d4578082015181840152602081019050620003b7565b83811115620003e4576000848401525b50505050565b600060028204905060018216806200040357607f821691505b602082108114156200041a576200041962000456565b5b50919050565b6200042b82620004b4565b810181811067ffffffffffffffff821117156200044d576200044c62000485565b5b80604052505050565b7f4e487b7100000000000000000000000000000000000000000000000000000000600052602260045260246000fd5b7f4e487b7100000000000000000000000000000000000000000000000000000000600052604160045260246000fd5b6000601f19601f8301169050919050565b610a2880620004d56000396000f3fe608060405234801561001057600080fd5b50600436106100415760003560e01c8063956b42e714610046578063a413686214610076578063cfae321714610092575b600080fd5b610060600480360381019061005b9190610601565b6100b0565b60405161006d9190610724565b60405180910390f35b610090600480360381019061008b919061062a565b610181565b005b61009a6102eb565b6040516100a79190610724565b60405180910390f35b6060600160008373ffffffffffffffffffffffffffffffffffffffff1673ffffffffffffffffffffffffffffffffffffffff16815260200190815260200160002080546100fc906108e6565b80601f0160208091040260200160405190810160405280929190818152602001828054610128906108e6565b80156101755780601f1061014a57610100808354040283529160200191610175565b820191906000526020600020905b81548152906001019060200180831161015857829003601f168201915b50505050509050919050565b61022e6040518060600160405280602381526020016109d060239139600080546101aa906108e6565b80601f01602080910402602001604051908101604052809291908181526020018280546101d6906108e6565b80156102235780601f106101f857610100808354040283529160200191610223565b820191906000526020600020905b81548152906001019060200180831161020657829003601f168201915b505050505083610419565b80600090805190602001906102449291906104e1565b5080600160003373ffffffffffffffffffffffffffffffffffffffff1673ffffffffffffffffffffffffffffffffffffffff16815260200190815260200160002090805190602001906102989291906104e1565b503373ffffffffffffffffffffffffffffffffffffffff167ffae51f5480b362c362b5f790e2a1b86b677c562bf1c1db0094505abfe05ef91160006040516102e091906107c9565b60405180910390a250565b6060600080546102fa906108e6565b80601f0160208091040260200160405190810160405280929190818152602001828054610326906108e6565b80156103735780601f1061034857610100808354040283529160200191610373565b820191906000526020600020905b81548152906001019060200180831161035657829003601f168201915b5050505050905090565b6104158282604051602401610393929190610746565b6040516020818303038152906040527f4b5c4277000000000000000000000000000000000000000000000000000000007bffffffffffffffffffffffffffffffffffffffffffffffffffffffff19166020820180517bffffffffffffffffffffffffffffffffffffffffffffffffffffffff83818316178352505050506104b8565b5050565b6104b38383836040516024016104319392919061077d565b6040516020818303038152906040527f2ced7cef000000000000000000000000000000000000000000000000000000007bffffffffffffffffffffffffffffffffffffffffffffffffffffffff19166020820180517bffffffffffffffffffffffffffffffffffffffffffffffffffffffff83818316178352505050506104b8565b505050565b60008151905060006a636f6e736f6c652e6c6f679050602083016000808483855afa5050505050565b8280546104ed906108e6565b90600052602060002090601f01602090048101928261050f5760008555610556565b82601f1061052857805160ff1916838001178555610556565b82800160010185558215610556579182015b8281111561055557825182559160200191906001019061053a565b5b5090506105639190610567565b5090565b5b80821115610580576000816000905550600101610568565b5090565b600061059761059284610810565b6107eb565b9050828152602081018484840111156105af57600080fd5b6105ba8482856108a4565b509392505050565b6000813590506105d1816109b8565b92915050565b600082601f8301126105e857600080fd5b81356105f8848260208601610584565b91505092915050565b60006020828403121561061357600080fd5b6000610621848285016105c2565b91505092915050565b60006020828403121561063c57600080fd5b600082013567ffffffffffffffff81111561065657600080fd5b610662848285016105d7565b91505092915050565b600061067682610856565b6106808185610861565b93506106908185602086016108b3565b610699816109a7565b840191505092915050565b600081546106b1816108e6565b6106bb8186610861565b945060018216600081146106d657600181146106e85761071b565b60ff198316865260208601935061071b565b6106f185610841565b60005b83811015610713578154818901526001820191506020810190506106f4565b808801955050505b50505092915050565b6000602082019050818103600083015261073e818461066b565b905092915050565b60006040820190508181036000830152610760818561066b565b90508181036020830152610774818461066b565b90509392505050565b60006060820190508181036000830152610797818661066b565b905081810360208301526107ab818561066b565b905081810360408301526107bf818461066b565b9050949350505050565b600060208201905081810360008301526107e381846106a4565b905092915050565b60006107f5610806565b90506108018282610918565b919050565b6000604051905090565b600067ffffffffffffffff82111561082b5761082a610978565b5b610834826109a7565b9050602081019050919050565b60008190508160005260206000209050919050565b600081519050919050565b600082825260208201905092915050565b600061087d82610884565b9050919050565b600073ffffffffffffffffffffffffffffffffffffffff82169050919050565b82818337600083830152505050565b60005b838110156108d15780820151818401526020810190506108b6565b838111156108e0576000848401525b50505050565b600060028204905060018216806108fe57607f821691505b6020821081141561091257610911610949565b5b50919050565b610921826109a7565b810181811067ffffffffffffffff821117156109405761093f610978565b5b80604052505050565b7f4e487b7100000000000000000000000000000000000000000000000000000000600052602260045260246000fd5b7f4e487b7100000000000000000000000000000000000000000000000000000000600052604160045260246000fd5b6000601f19601f8301169050919050565b6109c181610872565b81146109cc57600080fd5b5056fe4368616e67696e67206772656574696e672066726f6d202725732720746f2027257327a2646970667358221220ef9d7ded5590cdea256de34a9b5d8d17910e079f25cb1656a61af7909236e9f964736f6c634300080400334465706c6f79696e67206120477265657465722077697468206772656574696e673a",
  "devdoc": {
    "kind": "dev",
    "methods": {},
    "version": 1
  },
  "userdoc": {
    "kind": "user",
    "methods": {},
    "version": 1
  },
  "storageLayout": {
    "storage": [
      {
        "astId": 4,
        "contract": "contracts/Greeter.sol:Greeter",
        "label": "greeting",
        "offset": 0,
        "slot": "0",
        "type": "t_string_storage"
      },
      {
        "astId": 8,
        "contract": "contracts/Greeter.sol:Greeter",
        "label": "userToGreeting",
        "offset": 0,
        "slot": "1",
        "type": "t_mapping(t_address,t_string_storage)"
      }
    ],
    "types": {
      "t_address": {
        "encoding": "inplace",
        "label": "address",
        "numberOfBytes": "20"
      },
      "t_mapping(t_address,t_string_storage)": {
        "encoding": "mapping",
        "key": "t_address",
        "label": "mapping(address => string)",
        "numberOfBytes": "32",
        "value": "t_string_storage"
      },
      "t_string_storage": {
        "encoding": "bytes",
        "label": "string",
        "numberOfBytes": "32"
      }
    }
  }
}